:100000000C943A000C9457000C9457000C94570031
:100010000C9457000C9457000C9457000C94570004
:100020000C9457000C9457000C9457000C945700F4
:100030000C9457000C9457000C9457000C945700E4
:100040000C9457000C9457000C9457000C945700D4
:100050000C9457000C9457000C9457000C945700C4
:100060000C9457000C9457000C9457000C945700B4
:100070000C94570011241FBECFEFD4E0DEBFCDBFDC
:1000800012E0A0E0B1E0E8E2FFE102C005900D92CD
:10009000AC32B107D9F722E0ACE2B2E001C01D9268
:1000A000A335B207E1F70E940E0C0C94920F0C944A
:1000B0000000EF92FF920F931F93CF93DF93CDB782
:1000C000DEB762970FB6F894DEBF0FBECDBF8C01CE
:1000D000CE0101967C0182E1F70111928A95E9F740
:1000E0008AE993E09A8389838EE390E09C838B83F3
:1000F0008DE793E098878F8388E391E09A878987DB
:1001000084E593E09E878D878DE790E0988B8F87BD
:1001100081E090E00E94010A8DEF91E00E94EC09DD
:10012000C8010E94770343E0B701C8010E9482051D
:1001300062960FB6F894DEBF0FBECDBFDF91CF91B0
:100140001F910F91FF90EF900895EF92FF920F9300
:100150001F93CF93DF93CDB7DEB762970FB6F894B6
:10016000DEBF0FBECDBF7C018E010F5F1F4F82E14E
:10017000F80111928A95E9F78AE993E09A838983D5
:100180008EE390E09C838B838CE993E098878F8348
:1001900085E39CE09A87898789EB93E09E878D872A
:1001A0008DE790E0988B8F8781E090E00E94010AB4
:1001B00084E092E00E94EC0943E0B801C7010E948C
:1001C000820562960FB6F894DEBF0FBECDBFDF91F9
:1001D000CF911F910F91FF90EF900895CF93DF93F0
:1001E000CDB7DEB762970FB6F894DEBF0FBECDBFB6
:1001F000BE016F5F7F4F22E1FB0111922A95E9F763
:100200002DE033E03A8329832EE330E03C832B83D7
:100210002CE133E038872F8328E331E03A872987C0
:1002200020E233E03E872D872DE730E0388B2F87A3
:1002300043E00E94820562960FB6F894DEBF0FBEBF
:10024000CDBFDF91CF910895CF93DF93EC010E9452
:10025000B80283E090E09E838D83CE01DF91CF9141
:100260000C94A703CF93DF93EC010E94B80282E0C5
:1002700090E09E838D83CE01DF91CF910C94A703F4
:10028000CF93DF93EC0180E192E00E94ED021E82A9
:100290001D82CE010E94A303CE010E94D003CE0195
:1002A000DF91CF910C94D403CF93DF93EC018BE1DA
:1002B00092E00E94ED021E821D82CE010E94A303E5
:1002C000CE010E94D003CE01DF91CF910C94D403D4
:1002D0000F931F93CF93DF93CDB7DEB762970FB61F
:1002E000F894DEBF0FBECDBF8C01BE016F5F7F4FA4
:1002F00082E1FB0111928A95E9F78DE093E09A8300
:1003000089838EE390E09C838B838CE193E09887D4
:100310008F8388E391E09A8789878EE193E09E87B7
:100320008D878AE698E1988B8F8743E0C8010E9409
:100330008205F80185819681059761F480858F5F3C
:100340008087878190850E946B04C8010E94FD020E
:100350000E94ED08F80185819681039749F4C80150
:100360000E943104C8010E94D403C8010E940D03F9
:1003700062960FB6F894DEBF0FBECDBFDF91CF916E
:100380001F910F9108950E9416060E949A020E94E2
:100390003F050E940B0C0E94F10384EF91E00E9444
:1003A000200584EF91E00E94DF0582E491E00E9445
:1003B0000B0A84E10E94FB0981E090E00E94060A9A
:1003C00081E090E00C94010AFC01EE0FFF1FEE5C4F
:1003D000FE4F0190F081E02DCB010994EF92FF9246
:1003E0000F931F93CF93DF93EC01F980E8806A812C
:1003F0007B81C7010E94970297FF03C085E090E0D0
:1004000004C095302CF083E090E09E838D8371C012
:10041000873018F08A8181958A83911163C08B811E
:100420008F3F09F05FC00E2D112707FD10952C811D
:1004300030E02F5F3F4F0217130741F16091CA016F
:100440007091CB018A819B810E949002882331F0B8
:100450002C8130E002171307E1F411C06091C20152
:100460007091C3018A819B810E9490028823A1F030
:100470002C8130E0C90101970817190719F4E11020
:100480002EC01CC00217130721F41A8281E08B834F
:1004900029C02E5F3F4F1DC06091C6017091C701FA
:1004A0008A819B810E9490028823E1F08C81282F11
:1004B00030E00217130729F4811111C081E08A830B
:1004C000E6CFA9014E5F5F4F04171507F1F22D5FCC
:1004D0003F4F0217130731F486E0E812EFCF8FEF9A
:1004E0008A83D4CF6A817B81C7010E949702888367
:1004F0009983DF91CF911F910F91FF90EF90089515
:10050000FC014481262F332727FD3095240F311D10
:100510002530310510F4460F44830895962F089531
:10052000861302C081E0971380E081700895860FE2
:10053000970F089508950F931F93CF93DF938C0126
:100540000E94F405C0E0D0E00E94F303882341F04C
:1005500021960E94100A0E94F6030E940106F4CF21
:10056000C017D107A8F3DF91CF911F910F91089584
:100570000F931F93CF93DF9300D01F92CDB7DEB7B9
:10058000FC0120851F922F9387811F928F9386E213
:1005900092E09F938F931F9283E08F938E010F5F62
:1005A0001F4F1F930F930E94AF0C80E090E00E94BA
:1005B000010AC8010E94EC0984EC99E00E949B02A8
:1005C0000FB6F894DEBF0FBECDBF0F900F900F9007
:1005D000DF91CF911F910F910895CF93DF93EC019D
:1005E00081E090E00E94010ACE010E94EC098EE5B4
:1005F0009AE1DF91CF910C949B02FC0187818530B9
:1006000020F086E090E0968385838085853020F019
:1006100087E090E0968385830895CF93DF93EC0184
:100620000E942205CE010E942405CE010E943105C0
:10063000DF91CF910C943D050C9441050C94EE0193
:10064000CF93DF93EC010E94F303882321F0DF9125
:10065000CF910C94F6030E947B0482E090E00E940C
:10066000DA04882349F0CE010E94EF040E94EC04D2
:1006700082E090E09E838D8383E090E00E94DA0424
:10068000882379F0CE0107960E940B050E94EC04A6
:1006900084E090E09E838D83CE01DF91CF910C9416
:1006A000FD02DF91CF910895CF93DF93EC010E947B
:1006B0007B0480E090E00E94DA048823A9F083E0C4
:1006C00090E09E838D830E94ED080E942A040E9480
:1006D000F4050E94F303882339F00E94F6030E9478
:1006E0003D050E940106F5CFDF91CF91089524E6E4
:1006F00030E0FC01328721870895CF93DF93EC012E
:100700000E94000C89859A85009721F001979A87AD
:1007100089870DC080E00E94D20B882341F081E0E0
:1007200090E09E838D83DF91CF910C94ED08DF9153
:10073000CF9108950C943D050E94F30381110C9410
:10074000F6030C942304FC01178210860895CF93BE
:10075000DF93EC0165E083E00E948E029983888339
:100760006FEF80E00E948E029B838A83DF91CF919E
:100770000895CF93DF93EC010E947B0481E090E029
:100780000E94DA04882349F082E090E09E838D8302
:10079000CE01DF91CF910C94A703DF91CF91089503
:1007A00022E0FC0124830895CF93DF93EC016FEFE7
:1007B0008FEF0E948E0299838883DF91CF910895F5
:1007C000E5E3F2E043E14083DB01AE52BE4F2C9102
:1007D0002183828393831092340281E080933302D9
:1007E00008950C94B70A80913302089580913302E2
:1007F000882301F10E949F0A8823E1F0E0913402EE
:10080000F0E0EB5CFD4F80810E94A50A0E949B0AEC
:1008100081110E949D0AE0913402EF5FE09334025F
:10082000E43030F4F0E0EB5CFD4F8081811102C0D8
:1008300010923302089580913302882319F00E94A8
:10084000F603F9CF089560E070E080E090E00E9448
:10085000E003089561E070E080E090E00E94E00332
:1008600008951F93CF93DF93FC018081D281D195AE
:10087000C381C19516E3181B6091CC017091CD0125
:100880008D2F9C2F0E949002882311F090E31AC0B4
:100890006091CE017091CF018D2F9C2F0E9490020C
:1008A000882311F091E30EC06091D0017091D101C5
:1008B0008D2F9C2F0E949002882311F092E302C09A
:1008C00098E718E762E070E0812F0E94E003DF9173
:1008D000CF911F9108959C0180E090E02A3030F480
:1008E0003A3020F480E3830F90E3920F63E070E0EE
:1008F0000E94E00308950E949B0A882309F459C0CE
:100900000E949D0A20912C0230912D022130310548
:1009100069F038F02230310581F123303105E1F101
:1009200008958331B1F581E090E02FC0873429F438
:100930001092300210922F0235C0813429F4309386
:10094000300220932F022EC0823439F482E090E0EE
:100950009093300280932F0218C0833549F483E0CE
:1009600090E09093300280932F0282E090E00DC0DF
:1009700010922D0210922C020CC090ED980F9A301C
:10098000B8F78093310283E090E090932D0280933A
:100990002C0210922E02089590ED980F9A3040F795
:1009A0008093320281E080932E0210922D021092E9
:1009B0002C02089520912E02222359F041E020912B
:1009C0002F02309130022817390709F040E0842FB8
:1009D00001C080E08170089510922E020895FC01FC
:1009E00080912E028823B1F080912F0290913002E5
:1009F000029781F4809131028053808385E0818366
:100A0000A0913202AA0FBB0BA459BE4F8D919C91AD
:100A100093838283089520912E02222381F02091D6
:100A20002F02309130022330310549F420913102F8
:100A30002053FC012083209132022053218308950A
:100A40000C948D0A0C94ED08FC012181253040F4B2
:100A5000308161E084E0821B96E0931B0E94450890
:100A60000895FC01248174E0721B41E064E084E09D
:100A700096E0921B0E944C0808950C94100A0C9466
:100A8000EA07CF93DF93EC010E94620780E00E94A7
:100A90003207882331F061E0CE010E94800210927B
:100AA000390282E00E943207882331F06FEFCE01D5
:100AB0000E9480021092390280E00E945007882331
:100AC00051F080913902803130F061E0CE010E9416
:100AD00080021092390282E00E945007882351F070
:100AE00080913902803130F06FEFCE010E94800298
:100AF00010923902809139028F5F80933902DF9121
:100B0000CF910895AF92BF92CF92DF92EF92FF9272
:100B10000F931F93CF93DF938C01D62EC72EB42E45
:100B2000FC01E580F6800E9426060E943006CD2D4D
:100B3000DC2DF801858196818E159F05A9F58C81A4
:100B40009D810E943506E881F981C80109958C8153
:100B50009D812A813B81820F931F9D838C830E94FC
:100B60003006ED2DFC2D2FEF3FEF60E06B1509F304
:100B7000AE2E7F2F44815581DC01A41BB50BAF3F06
:100B80004FE7B40778F0B195A195B109A217B30763
:100B900018F0D901AC2E7D2F6F5F36969D01CA2DBE
:100BA000D72FE4CFEF01C5CFDF91CF911F910F91E8
:100BB000FF90EF90DF90CF90BF90AF900895CF93CC
:100BC000DF93EC010E9426069E0140E050E062E1C6
:100BD0007AE780E090E00E945F0C30933D02209322
:100BE0003C02DF91CF9108950E94300620913C0293
:100BF00030913D02280F391F30933B0220933A0277
:100C0000089580913A0290913B020E9435068091AE
:100C10003A0290913B0220913C0230913D02820FBA
:100C2000931F90933B0280933A020895E1E6F0E02F
:100C300080E880831082A89584B7877F84BFE0E630
:100C4000F0E0808188618083108208951092800096
:100C500084E08093810010928500109284000895B2
:100C600080918400909185000895AC01809184006A
:100C7000909185009C01241B350B283E3340B0F732
:100C800008952091840030918500820F931F0C9469
:100C900035068530A0F4673090F421E030E0062E70
:100CA00001C0220F0A94EAF7E82FF0E0E15CFD4F63
:100CB000822F8095908189234111822B8083089512
:100CC000853088F4673078F4E82FF0E0E15CFD4F80
:100CD00021E030E0062E01C0220F0A94EAF790814D
:100CE000922381E009F480E0089560913E02E62FAE
:100CF000F0E0E15CFD4F80810E94C40680913E02DD
:100D00008F5F853018F480933E02089510923E0262
:100D1000089510923F0210924002109241021092E8
:100D200042021092430208950E94A2060C94890682
:100D3000FC01FF2784A1892B84A385A1892B85A38E
:100D400081E00895CF93DF93C0EED1E0899199912E
:100D50000E94980681E0CE3ED807C1F783E090E478
:100D60000E94980680E090E80E94980683E090E157
:100D70000E94980683E090E80E94980683E090E243
:100D8000DF91CF910C949806E0914402F0E0EE0FD1
:100D9000FF1FEA52FE4F20813181F901FF2795A103
:100DA000932B95A3E0EEF1E020813181D901BB279F
:100DB00080FF07C095962C919597932F909592233D
:100DC00004C095969C919597932B95969C938695A8
:100DD000329691E0EE3EF90739F7E62FF0E0EE0F9C
:100DE000FF1FEA52FE4F80819181FC01FF2725A160
:100DF000892F8095822385A36093440208956230F1
:100E0000710511F160F46130710551F5FC01FF27A6
:100E100084A19095892384A385A189231EC0633072
:100E2000710541F064307105D9F4FC01FF2784A1FC
:100E3000892B10C0FC01FF2784A1892B84A325A145
:100E4000892F8095822309C0FC01FF2784A1292FC7
:100E50002095822384A385A1892B85A381E0089511
:100E600080E00895E82FF0E0EE0FFF1FEB5BFD4FF1
:100E70008081882321F0818191E0892701C080E071
:100E800081700895E82FF0E0EE0FFF1FEB5BFD4F40
:100E90008081811102C0818101C080E0817008954C
:100EA000E82FF0E0EE0FFF1FEB5BFD4F8081089510
:100EB000E82FF0E0EE0FFF1FEB5BFD4F908181E02C
:100EC000892708954F925F927F928F929F92AF925F
:100ED000BF92CF92DF92EF92FF920F931F93CF9327
:100EE000DF9300D0CDB7DEB755E4452E52E0552E46
:100EF00066E4E62E62E0F62E7EEEA72E71E0B72EB7
:100F0000E6E07E2EF2018081F7018083F5010191F8
:100F100011915F016801DD24F60184A1812E9924DD
:100F200025A130E02821392141E0232B09F440E0BC
:100F300090E088219921892B29F0442341F024E075
:100F400030E00AC0442331F022E030E005C023E065
:100F500030E002C021E030E064E070E0C8012983A5
:100F60003A830E94FF0662E070E0C8010E94FF061B
:100F7000872D8A95F1F7F60183A190E088219921C8
:100F800041E029813A81892B09F040E0F201408358
:100F9000B901C8010E94FF06F2E04F0E511C82E029
:100FA000E80EF11CEFE44E16E2E05E0609F0AACF6F
:100FB0000F900F90DF91CF911F910F91FF90EF90C5
:100FC000DF90CF90BF90AF909F908F907F905F9079
:100FD0004F9008950895009789F0FC012381621BCA
:100FE00067FD09C0772767FD7095248130E081E0B7
:100FF000621773070CF080E08170089580E0089517
:10100000CF93DF93FC01822F309789F191814917AB
:1010100070F52281821758F52381621B67FD27C076
:10102000A62FBB27A7FDB095C481D0E0AC17BD07A4
:10103000F4F4692F0E94310C480F658170E0CD01F6
:101040000E943A0CDC011696842F8695869586952B
:10105000AE0FBF1FA80FB11D2C9130E0477002C02A
:10106000359527954A95E2F7822F817001C080E07F
:10107000DF91CF91089541E0611101C040E0692FF7
:101080000C944906692F0C94600641E0611101C07F
:1010900040E0692F0C9449066F927F928F929F9245
:1010A000AF92BF92CF92DF92EF92FF920F931F9376
:1010B000CF93DF931F92CDB7DEB7862EB42E6C018F
:1010C000862F992787FD90958C199109C7FC9395D8
:1010D000072F112707FD10950D191109D7FC13953E
:1010E00097FD03C0AA24A39402C0AA24AA9417FDC2
:1010F00003C09924939402C099249A943C0197FFC9
:1011000003C071946194710817FF03C01195019594
:1011100011096016710694F07301F594E794C814F0
:1011200009F16B2DC6010E944508E01AF10AF7FE8D
:1011300003C0E60CF71CD90CCA0CF1CF7801F5946A
:10114000E794D71679F06B2DC60179830E94450884
:10115000E618F7087981F7FE03C0E00EF11ECA0C0D
:10116000D90CEFCF6B2DC6010F90DF91CF911F915E
:101170000F91FF90EF90DF90CF90BF90AF909F9036
:101180008F907F906F900C944508FF920F931F9360
:10119000CF93DF93182FF92E062FC72FD42F792F37
:1011A0000E944C084D2F612F7C2F812F9F2D0E9474
:1011B0004C084D2F602F7C2F802F9F2D0E944C08B4
:1011C0004D2F602F7C2F812F9C2F0E944C08DF9188
:1011D000CF911F910F91FF9008950E948906109260
:1011E000110110920C010895DF92EF92FF920F937C
:1011F0001F93CF93DF93E82E8B01F62ED12E2091F3
:10120000020130910301D0E02130310599F5D12E52
:10121000DD1AE0910801F09109018181C0E0D81741
:10122000B8F4E0910801F09109018281C81770F4C7
:101230002C2F4D2F6E2DCF010E940008682F8C2F70
:10124000800F9D2D0E944508CF5FEBCFDF5FDFCF82
:10125000E0910801F09109018281C81740F460E033
:101260008C2F800F9D2D0E944508CF5FF1CFDA941F
:1012700030C0DF5FFD2EF00EE0910801F091090112
:101280008181C0E0D817A8F4E0910801F09109012C
:101290008281C81770F72C2F4D2F6E2DCF010E9421
:1012A0000008682F8F2D9C2F910F0E944508CF5F5B
:1012B000EBCFE0910801F09109018281C81740F459
:1012C00060E08F2D9C2F910F0E944508CF5FF1CFDA
:1012D000F3948F2D9D2DDF91CF911F910F91FF9052
:1012E000EF90DF9008951F93CF93DF93182FEC01B9
:1012F0009C2F911B8991882349F00E94F408BC011E
:101300009C2F911B653014F477FFF2CF892FDF916A
:10131000CF911F9108950F931F93CF93DF93EC010B
:101320009B0110920C0140930D011092100100914D
:101330000801109109010115110509F448C0F801CF
:101340008181609106017091070190E00E943A0C42
:10135000BC0180910A0190910B010E944B0CCB01C2
:101360006AE070E00E943A0C90930F0180930E01A6
:10137000309305012093040140E250E0BE0181E179
:1013800091E00E94A00C80910001909101010197D1
:10139000F1F4FE0101900020E9F7CF010197F80177
:1013A000618170E06F5F7F4F8C1B0E94310C815018
:1013B00020910201309103012130310511F497E0B1
:1013C00001C095E0981718F48EEF80931001DF911B
:1013D000CF911F910F910895209102013091030147
:1013E0002130310511F476E001C070E04FEF60E08C
:1013F0000E948B09089590E0909307018093060165
:101400000895909301018093000108959093030142
:101410008093020108959093090180930801089533
:10142000CF9380914F029091500201969093500279
:1014300080934F0220910E0130910F018217930784
:1014400008F468C01092500210924F02E0910C0113
:10145000F0E0E050FF4F818981110AC080910D01B9
:10146000823008F457C0815080930D0110920C0116
:10147000C0910C018C2F90E0FC01E050FF4F2189BE
:10148000222309F447C020910001309101014091CD
:1014900010012115310521F02130310589F022C0DC
:1014A000411120C060910401709105018F5E9E4F33
:1014B0000E9473099FEF9C0F980F90930C0112C02C
:1014C00060910401709105012091020130910301A6
:1014D0002130310511F4740F01C0641B8F5E9E4FE3
:1014E0000E947309209110012F5F20931001332770
:1014F00027FD3095E0910801F0910901818190E08C
:10150000821793073CF41092100180910C018F5FB9
:1015100080930C01CF910C94750690930B018093EE
:101520000A010E94940684E190E090930701809361
:1015300006010C94ED080C94020B0C94230B0C94F4
:10154000080B0C940E0B0C94140B0E94140B0E94AD
:101550000E0B8823E1F38CE291E00197F1F70E94F2
:10156000020B81110C949D0A08950C942A0BCF93C1
:10157000DF9300D01F92CDB7DEB780ED90E09A8365
:10158000898388E08B83509A589A0E949F0B8FE63C
:1015900090E00E94360B81E090E00E948E0B61E0AB
:1015A00070E081E090E00E947A0B0E94660BCE0111
:1015B00001960E94EA0A0F900F900F90DF91CF9151
:1015C00008959C01215031093093CD0081508093C2
:1015D000CC000895CF93DF93EC01888199810E941C
:1015E000E10A8A819BEF980F943008F088E098E137
:1015F0009093C9008550880F8093CA0081E0DF91E5
:10160000CF9108958091C800881F8827881F08956A
:101610008091C80085FB882780F908958091C800D3
:1016200086FB882780F90895CF93C82F0E94080B66
:101630008823E1F39091C80090649093C800C09310
:10164000CE00CF9108958091C80087FFFCCF809194
:10165000CE000895CF93DF93EC018991882319F090
:101660000E94140BFACFDF91CF910895CF93DF93AF
:101670001F92CDB7DEB79E012F5F3F4F45E068EF69
:1016800071E00E94A90B91E0980F9093310199812C
:10169000915097BD18BC95B5977039F025B59091CC
:1016A00031019770287F922B95BD298130E0E82F7A
:1016B000F0E0E850FE4FC901008002C0880F991F7A
:1016C0000A94E2F70F90DF91CF91089585B3897F57
:1016D00085BB95B5809131018770987F892B85BD39
:1016E000089585B5887F85BD089585B382FB8827D9
:1016F00080F90895009719F0019741F0089584B595
:101700006295660F660F607C8F7305C084B5637049
:101710006295607F8F7C682B64BD0895009741F0CF
:10172000019759F484B58E7F84BD84B5826002C070
:1017300084B58C7F84BD81E0089580E0089514BC59
:1017400015BC16BC18BC81E090E00E948E0B81E0B5
:101750000895CF93DF93D62FFB0160E070E0A1E006
:10176000B0E05E2F5D1B5417B8F4C191BD010C2E83
:1017700002C0660F771F0A94E2F76F5F7F4F76957E
:101780006795680F791F02C076956795CA95E2F74D
:101790006F3F710509F028F7F9016083852FDF910C
:1017A000CF91089581110CC080915102882329F0B6
:1017B0008091520291E0892701C080E081700895F4
:1017C00080E0089581110AC080915102811103C007
:1017D0008091520201C080E08170089580E00895F8
:1017E000811103C080915102089580E00895811114
:1017F00005C08091510291E08927089580E0089505
:10180000E1E5F2E080818093520289B1881F882748
:10181000881F8083089557985F980895CF93DF932A
:10182000CDB7DEB72B970FB6F894DEBF0FBECDBF96
:101830008E010F5F1F4F8BE0F80111928A95E9F737
:10184000C8010E94A703C8010E94D003C8010E94DA
:10185000A3030E94C301B8018E819F810E94E4010D
:10186000FACF002480FD060E660F11F08695D1F7A1
:10187000802D08950024552704C0080E591F880F95
:10188000991F009729F076956795B8F37105B9F718
:10189000802D952F0895AA1BBB1B51E107C0AA1FDD
:1018A000BB1FA617B70710F0A61BB70B881F991F01
:1018B0005A95A9F780959095BC01CD010895052E04
:1018C00097FB1EF400940E94760C57FD07D00E94EF
:1018D0007E0C07FC03D04EF40C94760C509540958A
:1018E000309521953F4F4F4F5F4F089590958095CC
:1018F000709561957F4F8F4F9F4F0895A1E21A2EEB
:10190000AA1BBB1BFD010DC0AA1FBB1FEE1FFF1FA3
:10191000A217B307E407F50720F0A21BB30BE40BF3
:10192000F50B661F771F881F991F1A9469F760953A
:101930007095809590959B01AC01BD01CF010895F4
:10194000FB01DC014150504048F001900D92002015
:10195000C9F701C01D9241505040E0F70895AEE034
:10196000B0E0E5EBFCE00C94690F0D891E898F89CE
:10197000988D26E02C831A83098397FF02C080E0AC
:1019800090E801979E838D83AE01455E5F4F698D20
:101990007A8DCE0101960E94DF0C4D815E8157FD4C
:1019A0000AC02F813885421753070CF49A01F801B9
:1019B000E20FF31F10822E96E4E00C94850FACE04A
:1019C000B0E0E5EEFCE00C945B0F7C016B018A015A
:1019D000FC0117821682838181FFBFC1CE0101966F
:1019E0004C01F7019381F60193FD859193FF81915D
:1019F0006F01882309F4ADC1853239F493FD8591D7
:101A000093FF81916F01853229F4B70190E00E9424
:101A1000C90EE7CF512C312C20E02032A0F48B32BC
:101A200069F030F4803259F0833269F420612EC0BD
:101A30008D3239F0803339F4216028C0226024606F
:101A400025C0286023C027FD29C030ED380F3A306B
:101A500088F426FF07C0852D6AE00E94310C582EBD
:101A6000530E14C0832D6AE00E94310C382E330EC1
:101A700020620CC08E3221F426FD6BC1206406C0AA
:101A80008C3611F4206802C0883641F4F60193FDCB
:101A9000859193FF81916F018111BFCF982F9F7D19
:101AA0009554933028F40C5F1F4FFFE3F9830DC06A
:101AB000833631F0833771F0833509F05BC022C083
:101AC000F801808189830E5F1F4F44244394512C79
:101AD000540115C03801F2E06F0E711CF801A080AE
:101AE000B18026FF03C0652D70E002C06FEF7FEF6D
:101AF000C5012C870E94BE0E2C0183012C852F77F7
:101B0000222E17C03801F2E06F0E711CF801A08080
:101B1000B18026FF03C0652D70E002C06FEF7FEF3C
:101B2000C5012C870E94B30E2C012C852068222E23
:101B3000830123FC1BC0832D90E048165906B0F4A6
:101B4000B70180E290E00E94C90E3A94F4CFF5010B
:101B500027FC859127FE81915F01B70190E00E94EB
:101B6000C90E31103A94F1E04F1A51084114510452
:101B700071F7E5C0843611F0893639F5F80127FF91
:101B800007C060817181828193810C5F1F4F08C003
:101B900060817181882777FD8095982F0E5F1F4F98
:101BA0002F76B22E97FF09C090958095709561951C
:101BB0007F4F8F4F9F4F2068B22E2AE030E0A40164
:101BC0000E94FB0EA82EA81844C0853729F42F7E4A
:101BD000B22E2AE030E025C0F22FF97FBF2E8F36DB
:101BE000C1F018F4883579F0B4C0803719F088371F
:101BF00021F0AFC02F2F2061B22EB4FE0DC08B2D6F
:101C00008460B82E09C024FF0AC09F2F9660B92EA9
:101C100006C028E030E005C020E130E002C020E14D
:101C200032E0F801B7FE07C0608171818281938143
:101C30000C5F1F4F06C06081718180E090E00E5FF5
:101C40001F4FA4010E94FB0EA82EA818FB2DFF77A2
:101C5000BF2EB6FE0BC02B2D2E7FA51450F4B4FE64
:101C60000AC0B2FC08C02B2D2E7E05C07A2C2B2D6D
:101C700003C07A2C01C0752C24FF0DC0FE01EA0DB3
:101C8000F11D8081803311F4297E09C022FF06C036
:101C90007394739404C0822F867809F0739423FDA3
:101CA00013C020FF06C05A2C731418F4530C571895
:101CB000732C731468F4B70180E290E02C870E94C3
:101CC000C90E73942C85F5CF731410F4371801C026
:101CD000312C24FF12C0B70180E390E02C870E94D2
:101CE000C90E2C8522FF17C021FF03C088E590E0B4
:101CF00002C088E790E0B7010CC0822F867859F0C7
:101D000021FD02C080E201C08BE227FD8DE2B70118
:101D100090E00E94C90EA51438F4B70180E390E06A
:101D20000E94C90E5A94F7CFAA94F401EA0DF11D4E
:101D30008081B70190E00E94C90EA110F5CF332039
:101D400009F44FCEB70180E290E00E94C90E3A94A8
:101D5000F6CFF7018681978102C08FEF9FEF2C9617
:101D6000E2E10C94770FFC01059061507040011086
:101D7000D8F7809590958E0F9F1F0895FC016150B4
:101D8000704001900110D8F7809590958E0F9F1F9D
:101D900008950F931F93CF93DF93182F092FEB0113
:101DA0008B8181FD03C08FEF9FEF20C082FF10C0A9
:101DB0004E815F812C813D81421753077CF4E8817D
:101DC000F9819F012F5F3F4F39832883108306C01D
:101DD000E885F985812F0995892B29F72E813F8187
:101DE0002F5F3F4F3F832E83812F902FDF91CF9125
:101DF0001F910F910895FA01AA27283061F120312F
:101E000091F1E8946F936E7F6E5F7F4F8F4F9F4F7E
:101E1000AF4FB1E040D0B4E03ED0670F781F891FCC
:101E20009A1FA11D680F791F8A1F911DA11D6A0F9E
:101E3000711D811D911DA11D22D009F468943F914F
:101E4000062E000C3019000C000C3019305D319357
:101E5000CEF6CF010895462F4770405D4193B3E021
:101E60000FD0C9F7F6CF462F4F70405D4A3318F0B8
:101E7000495D31FD4052419302D0A9F7EACFB4E069
:101E8000A6959795879577956795BA95C9F7009721
:101E90006105710508959B01AC010A2E06945795C2
:101EA000479537952795BA95C9F7620F731F841F19
:101EB000951FA01D08952F923F924F925F926F92AF
:101EC0007F928F929F92AF92BF92CF92DF92EF92CA
:101ED000FF920F931F93CF93DF93CDB7DEB7CA1B4B
:101EE000DB0B0FB6F894DEBF0FBECDBF09942A8876
:101EF000398848885F846E847D848C849B84AA841E
:101F0000B984C884DF80EE80FD800C811B81AA81AA
:101F1000B981CE0FD11D0FB6F894DEBF0FBECDBF75
:081F2000ED010895F894FFCFD4
:101F28000000000000001400000000000000000095
:101F38000000000000000000000000000000000099
:101F48000000000000000000000000000000000089
:101F580000015900A5006801EE002401320140018A
:101F68005401010305203B0200009220EB737D5FC2
:101F7800DE3DA552EA7A14004A222229BA2ED0055B
:101F88000014C0010020A4126A2B9A74A372A3380B
:101F9800ED498F38CE2AA712AA2AAE491004101488
:101FA8005444380E11152A250000EA5BEB3A4F72AB
:101FB8006B3BCF73CF134F7AED5B9774247B5D56E1
:101FC8004972FD5B6F5B6F7BEF136F7FEF57CE3806
:101FD80097246D7B6D2BED5FAD5AAD24A772FFFF83
:101FE800010101FFFF01FFFF000100FFFFFF00FFEC
:101FF80001FF474142530340008003100380032040
:1020080000400020001000080004000200010380C6
:102018000340032000800310000306080A20205014
:102028004F4E47002020534541524348494E4700F0
:102038002020594F552057494E20002020594F55F0
:0C204800204C4F5345002569256900001D
:00000001FF
